{
  "contractName": "SupplyChainProtocol",
  "abi": [
    {
      "anonymous": false,
      "inputs": [
        {
          "indexed": true,
          "internalType": "address",
          "name": "owner",
          "type": "address"
        },
        {
          "indexed": true,
          "internalType": "address",
          "name": "approved",
          "type": "address"
        },
        {
          "indexed": true,
          "internalType": "uint256",
          "name": "tokenId",
          "type": "uint256"
        }
      ],
      "name": "Approval",
      "type": "event"
    },
    {
      "anonymous": false,
      "inputs": [
        {
          "indexed": true,
          "internalType": "address",
          "name": "owner",
          "type": "address"
        },
        {
          "indexed": true,
          "internalType": "address",
          "name": "operator",
          "type": "address"
        },
        {
          "indexed": false,
          "internalType": "bool",
          "name": "approved",
          "type": "bool"
        }
      ],
      "name": "ApprovalForAll",
      "type": "event"
    },
    {
      "anonymous": false,
      "inputs": [
        {
          "indexed": false,
          "internalType": "address",
          "name": "owner",
          "type": "address"
        },
        {
          "indexed": false,
          "internalType": "uint256",
          "name": "OrderVolumeId",
          "type": "uint256"
        },
        {
          "indexed": false,
          "internalType": "uint256",
          "name": "cost",
          "type": "uint256"
        },
        {
          "indexed": false,
          "internalType": "string",
          "name": "productName",
          "type": "string"
        },
        {
          "indexed": false,
          "internalType": "string",
          "name": "description",
          "type": "string"
        },
        {
          "indexed": false,
          "internalType": "uint256",
          "name": "leadTime_in_days",
          "type": "uint256"
        }
      ],
      "name": "OrderMade",
      "type": "event"
    },
    {
      "anonymous": false,
      "inputs": [
        {
          "indexed": true,
          "internalType": "address",
          "name": "from",
          "type": "address"
        },
        {
          "indexed": true,
          "internalType": "address",
          "name": "to",
          "type": "address"
        },
        {
          "indexed": true,
          "internalType": "uint256",
          "name": "tokenId",
          "type": "uint256"
        }
      ],
      "name": "Transfer",
      "type": "event"
    },
    {
      "inputs": [],
      "name": "name",
      "outputs": [
        {
          "internalType": "string",
          "name": "",
          "type": "string"
        }
      ],
      "stateMutability": "view",
      "type": "function",
      "constant": true
    },
    {
      "inputs": [],
      "name": "orderId",
      "outputs": [
        {
          "internalType": "uint256",
          "name": "",
          "type": "uint256"
        }
      ],
      "stateMutability": "view",
      "type": "function",
      "constant": true
    },
    {
      "inputs": [],
      "name": "symbol",
      "outputs": [
        {
          "internalType": "string",
          "name": "",
          "type": "string"
        }
      ],
      "stateMutability": "view",
      "type": "function",
      "constant": true
    },
    {
      "inputs": [
        {
          "internalType": "uint256",
          "name": "_ID",
          "type": "uint256"
        },
        {
          "internalType": "uint64",
          "name": "_cost",
          "type": "uint64"
        },
        {
          "internalType": "string",
          "name": "_productName",
          "type": "string"
        },
        {
          "internalType": "string",
          "name": "_description",
          "type": "string"
        },
        {
          "internalType": "uint64",
          "name": "_leadTime_in_days",
          "type": "uint64"
        },
        {
          "internalType": "address",
          "name": "_owner",
          "type": "address"
        }
      ],
      "name": "_createOrder",
      "outputs": [
        {
          "internalType": "uint256",
          "name": "",
          "type": "uint256"
        }
      ],
      "stateMutability": "nonpayable",
      "type": "function"
    },
    {
      "inputs": [
        {
          "internalType": "uint256",
          "name": "_id",
          "type": "uint256"
        }
      ],
      "name": "getOrder",
      "outputs": [
        {
          "internalType": "uint256",
          "name": "id",
          "type": "uint256"
        },
        {
          "internalType": "uint256",
          "name": "cost",
          "type": "uint256"
        },
        {
          "internalType": "string",
          "name": "productName",
          "type": "string"
        },
        {
          "internalType": "string",
          "name": "description",
          "type": "string"
        },
        {
          "internalType": "uint256",
          "name": "leadTime_in_days",
          "type": "uint256"
        }
      ],
      "stateMutability": "view",
      "type": "function",
      "constant": true
    },
    {
      "inputs": [],
      "name": "totalSupply",
      "outputs": [
        {
          "internalType": "uint256",
          "name": "total",
          "type": "uint256"
        }
      ],
      "stateMutability": "view",
      "type": "function",
      "constant": true
    },
    {
      "inputs": [
        {
          "internalType": "address",
          "name": "owner",
          "type": "address"
        }
      ],
      "name": "balanceOf",
      "outputs": [
        {
          "internalType": "uint256",
          "name": "balance",
          "type": "uint256"
        }
      ],
      "stateMutability": "view",
      "type": "function",
      "constant": true
    },
    {
      "inputs": [
        {
          "internalType": "uint256",
          "name": "tokenId",
          "type": "uint256"
        }
      ],
      "name": "ownerOf",
      "outputs": [
        {
          "internalType": "address",
          "name": "owner",
          "type": "address"
        }
      ],
      "stateMutability": "view",
      "type": "function",
      "constant": true
    },
    {
      "inputs": [
        {
          "internalType": "address",
          "name": "to",
          "type": "address"
        },
        {
          "internalType": "uint256",
          "name": "tokenId",
          "type": "uint256"
        }
      ],
      "name": "transfer",
      "outputs": [],
      "stateMutability": "nonpayable",
      "type": "function"
    },
    {
      "inputs": [
        {
          "internalType": "address",
          "name": "_approved",
          "type": "address"
        },
        {
          "internalType": "uint256",
          "name": "_tokenId",
          "type": "uint256"
        }
      ],
      "name": "approve",
      "outputs": [],
      "stateMutability": "payable",
      "type": "function",
      "payable": true
    },
    {
      "inputs": [
        {
          "internalType": "address",
          "name": "operator",
          "type": "address"
        },
        {
          "internalType": "bool",
          "name": "_approved",
          "type": "bool"
        }
      ],
      "name": "setApprovalForAll",
      "outputs": [],
      "stateMutability": "nonpayable",
      "type": "function"
    },
    {
      "inputs": [
        {
          "internalType": "uint256",
          "name": "_tokenId",
          "type": "uint256"
        }
      ],
      "name": "getApproved",
      "outputs": [
        {
          "internalType": "address",
          "name": "",
          "type": "address"
        }
      ],
      "stateMutability": "view",
      "type": "function",
      "constant": true
    },
    {
      "inputs": [
        {
          "internalType": "address",
          "name": "_owner",
          "type": "address"
        },
        {
          "internalType": "address",
          "name": "_operator",
          "type": "address"
        }
      ],
      "name": "isApprovedForAll",
      "outputs": [
        {
          "internalType": "bool",
          "name": "",
          "type": "bool"
        }
      ],
      "stateMutability": "view",
      "type": "function",
      "constant": true
    },
    {
      "inputs": [
        {
          "internalType": "address",
          "name": "_from",
          "type": "address"
        },
        {
          "internalType": "address",
          "name": "_to",
          "type": "address"
        },
        {
          "internalType": "uint256",
          "name": "_tokenId",
          "type": "uint256"
        }
      ],
      "name": "transferFrom",
      "outputs": [],
      "stateMutability": "payable",
      "type": "function",
      "payable": true
    },
    {
      "inputs": [
        {
          "internalType": "address",
          "name": "_from",
          "type": "address"
        },
        {
          "internalType": "address",
          "name": "_to",
          "type": "address"
        },
        {
          "internalType": "uint256",
          "name": "_tokenId",
          "type": "uint256"
        }
      ],
      "name": "safeTransferFrom",
      "outputs": [],
      "stateMutability": "payable",
      "type": "function",
      "payable": true
    },
    {
      "inputs": [
        {
          "internalType": "address",
          "name": "_from",
          "type": "address"
        },
        {
          "internalType": "address",
          "name": "_to",
          "type": "address"
        },
        {
          "internalType": "uint256",
          "name": "_tokenId",
          "type": "uint256"
        },
        {
          "internalType": "bytes",
          "name": "data",
          "type": "bytes"
        }
      ],
      "name": "safeTransferFrom",
      "outputs": [],
      "stateMutability": "payable",
      "type": "function",
      "payable": true
    }
  ],
  "bytecode": "0x608060405234801561001057600080fd5b50612187806100206000396000f3fe6080604052600436106100f35760003560e01c806370a082311161008a578063b88d4fde11610059578063b88d4fde14610301578063d09ef2411461031d578063e2ed86531461035e578063e985e9c51461039b576100f3565b806370a082311461024757806395d89b4114610284578063a22cb465146102af578063a9059cbb146102d8576100f3565b806318160ddd116100c657806318160ddd146101a757806323b872dd146101d257806342842e0e146101ee5780636352211e1461020a576100f3565b806306fdde03146100f8578063081812fc14610123578063095ea7b314610160578063163de5e51461017c575b600080fd5b34801561010457600080fd5b5061010d6103d8565b60405161011a9190611c02565b60405180910390f35b34801561012f57600080fd5b5061014a60048036038101906101459190611902565b610411565b6040516101579190611ae8565b60405180910390f35b61017a60048036038101906101759190611868565b61045f565b005b34801561018857600080fd5b50610191610548565b60405161019e9190611c64565b60405180910390f35b3480156101b357600080fd5b506101bc61054e565b6040516101c99190611c64565b60405180910390f35b6101ec60048036038101906101e79190611752565b61055b565b005b61020860048036038101906102039190611752565b610782565b005b34801561021657600080fd5b50610231600480360381019061022c9190611902565b6107a2565b60405161023e9190611ae8565b60405180910390f35b34801561025357600080fd5b5061026e600480360381019061026991906116e5565b6107df565b60405161027b9190611c64565b60405180910390f35b34801561029057600080fd5b50610299610828565b6040516102a69190611c02565b60405180910390f35b3480156102bb57600080fd5b506102d660048036038101906102d19190611828565b610861565b005b3480156102e457600080fd5b506102ff60048036038101906102fa9190611868565b610947565b005b61031b600480360381019061031691906117a5565b6109dc565b005b34801561032957600080fd5b50610344600480360381019061033f9190611902565b610a03565b604051610355959493929190611c7f565b60405180910390f35b34801561036a57600080fd5b506103856004803603810190610380919061192f565b610c34565b6040516103929190611c64565b60405180910390f35b3480156103a757600080fd5b506103c260048036038101906103bd9190611712565b610dd8565b6040516103cf9190611be7565b60405180910390f35b6040518060400160405280601381526020017f537570706c79436861696e50726f746f636f6c0000000000000000000000000081525081565b6000600180549050821061042457600080fd5b6005600083815260200190815260200160002060009054906101000a900473ffffffffffffffffffffffffffffffffffffffff169050919050565b600073ffffffffffffffffffffffffffffffffffffffff168273ffffffffffffffffffffffffffffffffffffffff16141561049957600080fd5b6104a33382610e6c565b6104ac57600080fd5b6104b68282610ed8565b808273ffffffffffffffffffffffffffffffffffffffff166004600084815260200190815260200160002060009054906101000a900473ffffffffffffffffffffffffffffffffffffffff1673ffffffffffffffffffffffffffffffffffffffff167f8c5be1e5ebec7d5bd14f71427d1e84f3dd0314c0f7b2291e5b200ac8c7c3b92560405160405180910390a45050565b60005481565b6000600180549050905090565b600073ffffffffffffffffffffffffffffffffffffffff168273ffffffffffffffffffffffffffffffffffffffff16141561059557600080fd5b60006004600083815260200190815260200160002060009054906101000a900473ffffffffffffffffffffffffffffffffffffffff1690508073ffffffffffffffffffffffffffffffffffffffff168373ffffffffffffffffffffffffffffffffffffffff16141561060657600080fd5b8373ffffffffffffffffffffffffffffffffffffffff163373ffffffffffffffffffffffffffffffffffffffff16148061064657506106453383610f2e565b5b806106d857503073ffffffffffffffffffffffffffffffffffffffff1663e985e9c582336040518363ffffffff1660e01b8152600401610687929190611b03565b60206040518083038186803b15801561069f57600080fd5b505afa1580156106b3573d6000803e3d6000fd5b505050506040513d601f19601f820116820180604052508101906106d791906118a8565b5b6106e157600080fd5b6106eb8483610e6c565b61072a576040517f08c379a000000000000000000000000000000000000000000000000000000000815260040161072190611c44565b60405180910390fd5b6001805490508210610771576040517f08c379a000000000000000000000000000000000000000000000000000000000815260040161076890611c24565b60405180910390fd5b61077c848484610f9a565b50505050565b61079d838383604051806020016040528060008152506109dc565b505050565b60006004600083815260200190815260200160002060009054906101000a900473ffffffffffffffffffffffffffffffffffffffff169050919050565b6000600360008373ffffffffffffffffffffffffffffffffffffffff1673ffffffffffffffffffffffffffffffffffffffff168152602001908152602001600020549050919050565b6040518060400160405280600381526020017f534350000000000000000000000000000000000000000000000000000000000081525081565b600073ffffffffffffffffffffffffffffffffffffffff168273ffffffffffffffffffffffffffffffffffffffff16141561089b57600080fd5b3373ffffffffffffffffffffffffffffffffffffffff168273ffffffffffffffffffffffffffffffffffffffff1614156108d457600080fd5b6108de8282611145565b8173ffffffffffffffffffffffffffffffffffffffff163373ffffffffffffffffffffffffffffffffffffffff167f17307eab39ab6107e8899845ad3d59bd9653f200f220920489ca2b5937696c318360405161093b9190611be7565b60405180910390a35050565b600073ffffffffffffffffffffffffffffffffffffffff168273ffffffffffffffffffffffffffffffffffffffff16141561098157600080fd5b3073ffffffffffffffffffffffffffffffffffffffff168273ffffffffffffffffffffffffffffffffffffffff1614156109ba57600080fd5b6109c43382610e6c565b6109cd57600080fd5b6109d8338383610f9a565b5050565b6109e8338585856111dd565b6109f157600080fd5b6109fd8484848461138b565b50505050565b600080606080600060018681548110610a1f57610a1e611fe3565b5b90600052602060002090600502016000015460018781548110610a4557610a44611fe3565b5b906000526020600020906005020160010160009054906101000a900467ffffffffffffffff1660018881548110610a7f57610a7e611fe3565b5b906000526020600020906005020160020160018981548110610aa457610aa3611fe3565b5b906000526020600020906005020160030160018a81548110610ac957610ac8611fe3565b5b906000526020600020906005020160040160009054906101000a900467ffffffffffffffff168367ffffffffffffffff169350828054610b0890611ed9565b80601f0160208091040260200160405190810160405280929190818152602001828054610b3490611ed9565b8015610b815780601f10610b5657610100808354040283529160200191610b81565b820191906000526020600020905b815481529060010190602001808311610b6457829003601f168201915b50505050509250818054610b9490611ed9565b80601f0160208091040260200160405190810160405280929190818152602001828054610bc090611ed9565b8015610c0d5780601f10610be257610100808354040283529160200191610c0d565b820191906000526020600020905b815481529060010190602001808311610bf057829003601f168201915b505050505091508067ffffffffffffffff1690509450945094509450945091939590929450565b6000806040518060a001604052808981526020018863ffffffff1667ffffffffffffffff1681526020018781526020018681526020018563ffffffff1667ffffffffffffffff16815250905060018190806001815401808255809150506001900390600052602060002090600502016000909190919091506000820151816000015560208201518160010160006101000a81548167ffffffffffffffff021916908367ffffffffffffffff1602179055506040820151816002019080519060200190610d019291906114e4565b506060820151816003019080519060200190610d1e9291906114e4565b5060808201518160040160006101000a81548167ffffffffffffffff021916908367ffffffffffffffff1602179055505050600060018080549050610d639190611d9f565b90507fd9976dc511c4a16ce9b8aaa455aa5d08b3c55fec82a047aa72f71a0ffe2f659984828a8a8a8a604051610d9e96959493929190611b78565b60405180910390a1610db260008583610f9a565b600080815480929190610dc490611f3c565b919050555080925050509695505050505050565b6000600660008473ffffffffffffffffffffffffffffffffffffffff1673ffffffffffffffffffffffffffffffffffffffff16815260200190815260200160002060008373ffffffffffffffffffffffffffffffffffffffff1673ffffffffffffffffffffffffffffffffffffffff16815260200190815260200160002060009054906101000a900460ff16905092915050565b60008273ffffffffffffffffffffffffffffffffffffffff166004600084815260200190815260200160002060009054906101000a900473ffffffffffffffffffffffffffffffffffffffff1673ffffffffffffffffffffffffffffffffffffffff1614905092915050565b816005600083815260200190815260200160002060006101000a81548173ffffffffffffffffffffffffffffffffffffffff021916908373ffffffffffffffffffffffffffffffffffffffff1602179055505050565b60008273ffffffffffffffffffffffffffffffffffffffff166005600084815260200190815260200160002060009054906101000a900473ffffffffffffffffffffffffffffffffffffffff1673ffffffffffffffffffffffffffffffffffffffff1614905092915050565b600260008373ffffffffffffffffffffffffffffffffffffffff1673ffffffffffffffffffffffffffffffffffffffff1681526020019081526020016000206000815480929190610fea90611f3c565b91905055506004600082815260200190815260200160002060009054906101000a900473ffffffffffffffffffffffffffffffffffffffff169150600073ffffffffffffffffffffffffffffffffffffffff168373ffffffffffffffffffffffffffffffffffffffff16146110e557600260008473ffffffffffffffffffffffffffffffffffffffff1673ffffffffffffffffffffffffffffffffffffffff16815260200190815260200160002060008154809291906110a990611eaf565b91905055506005600082815260200190815260200160002060006101000a81549073ffffffffffffffffffffffffffffffffffffffff02191690555b808273ffffffffffffffffffffffffffffffffffffffff168473ffffffffffffffffffffffffffffffffffffffff167fddf252ad1be2c89b69c2b068fc378daa952ba7f163c4a11628f55a4df523b3ef60405160405180910390a4505050565b80600660003373ffffffffffffffffffffffffffffffffffffffff1673ffffffffffffffffffffffffffffffffffffffff16815260200190815260200160002060008473ffffffffffffffffffffffffffffffffffffffff1673ffffffffffffffffffffffffffffffffffffffff16815260200190815260200160002060006101000a81548160ff0219169083151502179055505050565b600060018054905082106111f057600080fd5b600073ffffffffffffffffffffffffffffffffffffffff168373ffffffffffffffffffffffffffffffffffffffff16141561122a57600080fd5b60006004600084815260200190815260200160002060009054906101000a900473ffffffffffffffffffffffffffffffffffffffff1690508073ffffffffffffffffffffffffffffffffffffffff168473ffffffffffffffffffffffffffffffffffffffff16141561129b57600080fd5b6112a58584610e6c565b6112ae57600080fd5b8473ffffffffffffffffffffffffffffffffffffffff168673ffffffffffffffffffffffffffffffffffffffff1614806112ee57506112ed8684610f2e565b5b8061138057503073ffffffffffffffffffffffffffffffffffffffff1663e985e9c582886040518363ffffffff1660e01b815260040161132f929190611b03565b60206040518083038186803b15801561134757600080fd5b505afa15801561135b573d6000803e3d6000fd5b505050506040513d601f19601f8201168201806040525081019061137f91906118a8565b5b915050949350505050565b611396848484610f9a565b6113a2848484846113b1565b6113ab57600080fd5b50505050565b60006113bc846114cb565b6113c957600190506114c3565b60008473ffffffffffffffffffffffffffffffffffffffff1663150b7a02338887876040518563ffffffff1660e01b815260040161140a9493929190611b2c565b602060405180830381600087803b15801561142457600080fd5b505af1158015611438573d6000803e3d6000fd5b505050506040513d601f19601f8201168201806040525081019061145c91906118d5565b90507f150b7a023d4804d13e8c85fb27262cb750cf6ba9f9dd3bb30d90f482ceeb4b1f7bffffffffffffffffffffffffffffffffffffffffffffffffffffffff1916817bffffffffffffffffffffffffffffffffffffffffffffffffffffffff1916149150505b949350505050565b600080823b905060008163ffffffff1611915050919050565b8280546114f090611ed9565b90600052602060002090601f0160209004810192826115125760008555611559565b82601f1061152b57805160ff1916838001178555611559565b82800160010185558215611559579182015b8281111561155857825182559160200191906001019061153d565b5b509050611566919061156a565b5090565b5b8082111561158357600081600090555060010161156b565b5090565b600061159a61159584611d05565b611ce0565b9050828152602081018484840111156115b6576115b5612046565b5b6115c1848285611e6d565b509392505050565b60006115dc6115d784611d36565b611ce0565b9050828152602081018484840111156115f8576115f7612046565b5b611603848285611e6d565b509392505050565b60008135905061161a816120de565b92915050565b60008135905061162f816120f5565b92915050565b600081519050611644816120f5565b92915050565b6000815190506116598161210c565b92915050565b600082601f83011261167457611673612041565b5b8135611684848260208601611587565b91505092915050565b600082601f8301126116a2576116a1612041565b5b81356116b28482602086016115c9565b91505092915050565b6000813590506116ca81612123565b92915050565b6000813590506116df8161213a565b92915050565b6000602082840312156116fb576116fa612050565b5b60006117098482850161160b565b91505092915050565b6000806040838503121561172957611728612050565b5b60006117378582860161160b565b92505060206117488582860161160b565b9150509250929050565b60008060006060848603121561176b5761176a612050565b5b60006117798682870161160b565b935050602061178a8682870161160b565b925050604061179b868287016116bb565b9150509250925092565b600080600080608085870312156117bf576117be612050565b5b60006117cd8782880161160b565b94505060206117de8782880161160b565b93505060406117ef878288016116bb565b925050606085013567ffffffffffffffff8111156118105761180f61204b565b5b61181c8782880161165f565b91505092959194509250565b6000806040838503121561183f5761183e612050565b5b600061184d8582860161160b565b925050602061185e85828601611620565b9150509250929050565b6000806040838503121561187f5761187e612050565b5b600061188d8582860161160b565b925050602061189e858286016116bb565b9150509250929050565b6000602082840312156118be576118bd612050565b5b60006118cc84828501611635565b91505092915050565b6000602082840312156118eb576118ea612050565b5b60006118f98482850161164a565b91505092915050565b60006020828403121561191857611917612050565b5b6000611926848285016116bb565b91505092915050565b60008060008060008060c0878903121561194c5761194b612050565b5b600061195a89828a016116bb565b965050602061196b89828a016116d0565b955050604087013567ffffffffffffffff81111561198c5761198b61204b565b5b61199889828a0161168d565b945050606087013567ffffffffffffffff8111156119b9576119b861204b565b5b6119c589828a0161168d565b93505060806119d689828a016116d0565b92505060a06119e789828a0161160b565b9150509295509295509295565b6119fd81611dd3565b82525050565b611a0c81611de5565b82525050565b6000611a1d82611d67565b611a278185611d7d565b9350611a37818560208601611e7c565b611a4081612055565b840191505092915050565b6000611a5682611d72565b611a608185611d8e565b9350611a70818560208601611e7c565b611a7981612055565b840191505092915050565b6000611a91601583611d8e565b9150611a9c82612066565b602082019050919050565b6000611ab4602283611d8e565b9150611abf8261208f565b604082019050919050565b611ad381611e3d565b82525050565b611ae281611e5b565b82525050565b6000602082019050611afd60008301846119f4565b92915050565b6000604082019050611b1860008301856119f4565b611b2560208301846119f4565b9392505050565b6000608082019050611b4160008301876119f4565b611b4e60208301866119f4565b611b5b6040830185611aca565b8181036060830152611b6d8184611a12565b905095945050505050565b600060c082019050611b8d60008301896119f4565b611b9a6020830188611aca565b611ba76040830187611ad9565b8181036060830152611bb98186611a4b565b90508181036080830152611bcd8185611a4b565b9050611bdc60a0830184611ad9565b979650505050505050565b6000602082019050611bfc6000830184611a03565b92915050565b60006020820190508181036000830152611c1c8184611a4b565b905092915050565b60006020820190508181036000830152611c3d81611a84565b9050919050565b60006020820190508181036000830152611c5d81611aa7565b9050919050565b6000602082019050611c796000830184611aca565b92915050565b600060a082019050611c946000830188611aca565b611ca16020830187611aca565b8181036040830152611cb38186611a4b565b90508181036060830152611cc78185611a4b565b9050611cd66080830184611aca565b9695505050505050565b6000611cea611cfb565b9050611cf68282611f0b565b919050565b6000604051905090565b600067ffffffffffffffff821115611d2057611d1f612012565b5b611d2982612055565b9050602081019050919050565b600067ffffffffffffffff821115611d5157611d50612012565b5b611d5a82612055565b9050602081019050919050565b600081519050919050565b600081519050919050565b600082825260208201905092915050565b600082825260208201905092915050565b6000611daa82611e3d565b9150611db583611e3d565b925082821015611dc857611dc7611f85565b5b828203905092915050565b6000611dde82611e1d565b9050919050565b60008115159050919050565b60007fffffffff0000000000000000000000000000000000000000000000000000000082169050919050565b600073ffffffffffffffffffffffffffffffffffffffff82169050919050565b6000819050919050565b600067ffffffffffffffff82169050919050565b6000611e6682611e47565b9050919050565b82818337600083830152505050565b60005b83811015611e9a578082015181840152602081019050611e7f565b83811115611ea9576000848401525b50505050565b6000611eba82611e3d565b91506000821415611ece57611ecd611f85565b5b600182039050919050565b60006002820490506001821680611ef157607f821691505b60208210811415611f0557611f04611fb4565b5b50919050565b611f1482612055565b810181811067ffffffffffffffff82111715611f3357611f32612012565b5b80604052505050565b6000611f4782611e3d565b91507fffffffffffffffffffffffffffffffffffffffffffffffffffffffffffffffff821415611f7a57611f79611f85565b5b600182019050919050565b7f4e487b7100000000000000000000000000000000000000000000000000000000600052601160045260246000fd5b7f4e487b7100000000000000000000000000000000000000000000000000000000600052602260045260246000fd5b7f4e487b7100000000000000000000000000000000000000000000000000000000600052603260045260246000fd5b7f4e487b7100000000000000000000000000000000000000000000000000000000600052604160045260246000fd5b600080fd5b600080fd5b600080fd5b600080fd5b6000601f19601f8301169050919050565b7f546f6b656e204944206973206e6f742076616c69640000000000000000000000600082015250565b7f46726f6d206973206e6f7420746865206f776e6572206f662074686520746f6b60008201527f656e000000000000000000000000000000000000000000000000000000000000602082015250565b6120e781611dd3565b81146120f257600080fd5b50565b6120fe81611de5565b811461210957600080fd5b50565b61211581611df1565b811461212057600080fd5b50565b61212c81611e3d565b811461213757600080fd5b50565b61214381611e47565b811461214e57600080fd5b5056fea2646970667358221220c859106f39089b08f6d5b841fc8b07423caab5baae755561c12a0d3f2199ea2364736f6c63430008050033",
  "immutableReferences": {},
  "source": "// SPDX-License-Identifier: MIT\r\npragma solidity ^0.8.4;\r\npragma experimental ABIEncoderV2;\r\n import \"./IERC721.sol\"; \r\n import \"./IERC721Receiver.sol\";\r\n \r\n\r\n\r\n contract SupplyChainProtocol is IERC721 {\r\n  \r\n    string public override constant name = \"SupplyChainProtocol\";\r\n    string public override constant symbol= \"SCP\";\r\n    bytes4 internal constant MAGIC_ERC721_RECEIVED = bytes4(keccak256(\"onERC721Received(address,address,uint256,bytes)\"));\r\n   uint256 public orderId;\r\n    \r\n    /**\r\n     *  bytes4(keccak256('balanceOf(address)')) == 0x70a08231\r\n     *  bytes4(keccak256('ownerOf(uint256)')) == 0x6352211e\r\n     *  bytes4(keccak256('approve(address, uint256)')) == 0x095ea7b3\r\n     *  bytes4(keccak256('getApproved(uint256)')) == 0x081812fc\r\n     *  bytes4(keccak256('setApprovalForAll(address, bool)')) == 0xa22cb465\r\n     *  bytes4(keccak256('isApprovedForAll(address, address)')) == 0xe985e9c5\r\n     *  bytes4(keccak256('transferFrom(address, address, uint256)')) == 0x23b872dd\r\n     *  bytes4(keccak256('safeTransferFrom(address, address, uint256)')) == 0x42842e0e\r\n     *  bytes4(keccak256('safeTransferFrom(address, address, uint256, bytes)')) == 0xb88d4fde\r\n     *  \r\n     *  => 0x70a08231 ^ 0x6352211e ^ 0x095ea7b3 ^ 0x081812fc ^\r\n     *     0xa22cb465 ^ 0xe985e9c5 ^ 0x23b872dd ^ 0x42842e0e ^ 0xb88d4fde == 0x80ac58cd\r\n     */\r\n    bytes4 private constant _INTERFACE_ID_ERC721 = 0x80ac58cd;\r\n\r\n    /**\r\n     *  bytes4(keccak256('supportsInterface(bytes4)'));\r\n    */\r\n    bytes4 private constant _INTERFACE_ID_ERC165 = 0x01ffc9a7;\r\n    \r\n  struct Order{\r\n      uint256 id;\r\n      uint64 cost;\r\n      string productName;\r\n      string description;\r\n      uint64 leadTime_in_days;\r\n    }\r\n    Order[] private orderVolume;\r\n    \r\n   \r\n   \r\n    mapping(address => uint256) private balances;\r\n    mapping(address => uint256) private OrderIncites;\r\n    mapping(uint256 => address) private orderIdMapping;\r\n    mapping(uint256 => address) private orderIndexToApproved;\r\n    mapping(address => mapping(address => bool)) private _operatorApprovals;\r\n   event OrderMade(address owner,\r\n     uint256 OrderVolumeId,\r\n      uint256 cost,\r\n      string productName,\r\n      string description,\r\n      uint256 leadTime_in_days\r\n    );\r\n    function _createOrder(uint256 _ID,\r\n        uint64 _cost,\r\n        string memory _productName,\r\n        string memory _description,\r\n        uint64 _leadTime_in_days,\r\n        address _owner\r\n       ) external returns (uint256) {\r\n           \r\n         Order memory _order = Order({\r\n             id:_ID,\r\n             cost: uint32(_cost),\r\n             productName: string(_productName),\r\n             description: string (_description),\r\n             leadTime_in_days: uint32(_leadTime_in_days)\r\n             });\r\n             \r\n          orderVolume.push(_order);\r\n          uint256 newOrderVolumeId=orderVolume.length - 1;\r\n          emit OrderMade(_owner, newOrderVolumeId, _cost, _productName, _description, _leadTime_in_days);\r\n          _transfer(address(0), _owner, newOrderVolumeId);\r\n          orderId++;\r\n          return newOrderVolumeId;  \r\n\r\n    }\r\n  \r\n    function getOrder(uint256 _id) external view returns(\r\n        uint256 id,\r\n        uint256 cost,\r\n        string memory productName,\r\n        string memory description,\r\n        uint256 leadTime_in_days\r\n    ) {\r\n        return (\r\n            orderVolume[_id].id,\r\n            orderVolume[_id].cost,\r\n            orderVolume[_id].productName,\r\n            orderVolume[_id].description,\r\n            orderVolume[_id].leadTime_in_days\r\n        );\r\n    } \r\n \r\n     \r\n    function totalSupply() external view override returns (uint256 total){\r\n        return orderVolume.length;\r\n    }\r\n \r\n    function balanceOf(address owner) external view override returns (uint256 balance){\r\n        return OrderIncites[owner];\r\n    }\r\n    function ownerOf(uint256 tokenId) external view override returns (address owner){\r\n        return orderIdMapping[tokenId];\r\n        \r\n    }\r\n \r\n\r\n    \r\n    function transfer( address to, uint256 tokenId) external override{\r\n        require(address(to) != address(0));\r\n        require(to != address(this));\r\n        require(_owns(msg.sender, tokenId));\r\n        _transfer(msg.sender,to,tokenId);\r\n    }\r\n    function _transfer(address _from, address _to, uint256 _tokenId) internal {\r\n        balances[_to]++;\r\n        _to=orderIdMapping[_tokenId];\r\n        if(_from != address(0)) {\r\n            balances[_from]--;\r\n            delete orderIndexToApproved[_tokenId];\r\n        }\r\n        emit Transfer(_from, _to, _tokenId);\r\n\r\n    }\r\n    function _owns(address _claimant, uint256 _tokenId) internal view returns(bool){\r\n        return orderIdMapping[_tokenId] == _claimant;\r\n    }\r\n     function approve(address _approved, uint256 _tokenId)public override payable {\r\n        require(_approved != address(0));\r\n        require(_owns(msg.sender, _tokenId));\r\n        _approve(_approved, _tokenId);\r\n        emit Approval(orderIdMapping[_tokenId], _approved, _tokenId);\r\n    }\r\n    \r\n     function setApprovalForAll(address operator, bool _approved) external override{ \r\n        require(operator != address(0));\r\n        require(operator != msg.sender);\r\n        _setApprovalForAll(operator, _approved);\r\n        emit ApprovalForAll(msg.sender, operator, _approved);\r\n    }\r\n\r\n    function _setApprovalForAll(address _operator, bool _approved) internal{\r\n        _operatorApprovals[msg.sender][_operator] = _approved;\r\n    }\r\n\r\n    function getApproved(uint256 _tokenId) external view override returns (address){\r\n        require(_tokenId < orderVolume.length);//check that the token exists\r\n        return orderIndexToApproved[_tokenId];\r\n    }\r\n\r\n    function isApprovedForAll(address _owner, address _operator) external override view returns (bool){\r\n        //returns the mapping status for these inputs\r\n        return _operatorApprovals[_owner][_operator];\r\n    } \r\n    function _checkERC721Support(address _from, address _to, uint256 _tokenId, bytes memory _data) internal returns (bool) {\r\n        if (!_isContract(_to)) {\r\n            return true;\r\n        }\r\n\r\n        // Call onERC721Received in the _to contract\r\n        bytes4 returnData = IERC721Receiver(_to).onERC721Received(msg.sender, _from, _tokenId, _data);\r\n        return returnData == MAGIC_ERC721_RECEIVED;\r\n    }\r\n     function _isContract(address _to) internal view returns (bool) {\r\n        uint32 size;\r\n        assembly {\r\n            size := extcodesize(_to)\r\n        }\r\n        return size > 0;\r\n    }\r\n    \r\n    \r\n    function safeTransferFrom(address _from, address  _to, uint256 _tokenId, bytes memory data) public override payable {\r\n        require(_isApprovedOrOwner(msg.sender, _from, _to, _tokenId));\r\n        _safeTransfer(_from, _to, _tokenId, data);\r\n\r\n    }\r\n     function transferFrom(address _from, address _to, uint256 _tokenId) external override payable{\r\n        require(_to != address(0));\r\n        address owner = orderIdMapping[_tokenId];\r\n        require(_to != owner); // not sending to the owner\r\n        require(msg.sender == _from || approvedFor(msg.sender, _tokenId) || this.isApprovedForAll(owner, msg.sender)); // currenct address is the owner of the token\r\n        require(_owns(_from, _tokenId), \"From is not the owner of the token\");\r\n        require(_tokenId < orderVolume.length, \"Token ID is not valid\");\r\n\r\n        _transfer(_from, _to, _tokenId);\r\n    }\r\n    \r\n    function _safeTransfer(address from, address to, uint256 tokenId, bytes memory _data) internal {\r\n        _transfer(from, to, tokenId);\r\n        require(_checkERC721Support(from, to, tokenId, _data));\r\n    }\r\n    function safeTransferFrom(address _from, address _to, uint256 _tokenId) external override payable {\r\n        safeTransferFrom(_from, _to, _tokenId,\"\");\r\n\r\n    }\r\n\r\n    function _approve(address _approved, uint256 _tokenId) private {\r\n        orderIndexToApproved[_tokenId] = _approved;\r\n    }\r\n    function approvedFor(address claimant, uint256 tokenId) internal view returns(bool){\r\n        return orderIndexToApproved[tokenId] == claimant;\r\n    }\r\n\r\n    function _isApprovedOrOwner(address spender, address _from, address _to, uint256 _tokenId) private view returns(bool) {\r\n        require(_tokenId < orderVolume.length);\r\n        require(_to != address(0));\r\n        address owner = orderIdMapping[_tokenId];\r\n        require(_to != owner);\r\n        require(_owns(_from, _tokenId));\r\n        //Error at approve(spender, _tokenId)\r\n        return (spender == _from || approvedFor(spender, _tokenId) || this.isApprovedForAll(owner, spender) );\r\n    }\r\n  \r\n   \r\n    \r\n }    ",
  "sourcePath": "C:/Users/samue/ERC721/contracts/SCP.sol",
  "compiler": {
    "name": "solc",
    "version": "0.8.5+commit.a4f2e591.Emscripten.clang"
  },
  "schemaVersion": "3.3.4",
  "updatedAt": "2021-06-19T00:56:34.057Z",
  "networkType": "ethereum",
  "devdoc": {
    "kind": "dev",
    "methods": {
      "getApproved(uint256)": {
        "details": "Throws if `_tokenId` is not a valid NFT.",
        "params": {
          "_tokenId": "The NFT to find the approved address for"
        },
        "returns": {
          "_0": "The approved address for this NFT, or the zero address if there is none"
        }
      },
      "isApprovedForAll(address,address)": {
        "params": {
          "_operator": "The address that acts on behalf of the owner",
          "_owner": "The address that owns the NFTs"
        },
        "returns": {
          "_0": "True if `_operator` is an approved operator for `_owner`, false otherwise"
        }
      },
      "ownerOf(uint256)": {
        "details": "Returns the owner of the `tokenId` token. Requirements: - `tokenId` must exist."
      },
      "safeTransferFrom(address,address,uint256)": {
        "details": "This works identically to the other function with an extra data parameter,  except this function just sets data to \"\".",
        "params": {
          "_from": "The current owner of the NFT",
          "_to": "The new owner",
          "_tokenId": "The NFT to transfer"
        }
      },
      "safeTransferFrom(address,address,uint256,bytes)": {
        "details": "Safely transfers `tokenId` token from `from` to `to`, checking first that contract recipients are aware of the ERC721 protocol to prevent tokens from being forever locked. Requirements: - `from` cannot be the zero address. - `to` cannot be the zero address. - `tokenId` token must exist and be owned by `from`. - If the caller is not `from`, it must be have been allowed to move this token by either {approve} or {setApprovalForAll}. - If `to` refers to a smart contract, it must implement {IERC721Receiver-onERC721Received}, which is called upon a safe transfer. Emits a {Transfer} event."
      }
    },
    "version": 1
  },
  "userdoc": {
    "kind": "user",
    "methods": {
      "getApproved(uint256)": {
        "notice": "Get the approved address for a single NFT"
      },
      "isApprovedForAll(address,address)": {
        "notice": "Query if an address is an authorized operator for another address"
      },
      "safeTransferFrom(address,address,uint256)": {
        "notice": "Transfers the ownership of an NFT from one address to another address"
      }
    },
    "version": 1
  }
}